:020000040800F2
:10000000483900202D020008596E00081B390008ED
:10001000556E00086D1D0008D9730008000000002F
:10002000000000000000000000000000856E0008D5
:10003000711D0008000000005B6E0008F76E0008EC
:10004000470200084702000847020008470200086C
:10005000470200084702000847020008470200085C
:10006000470200084702000847020008470200084C
:10007000470200084702000847020008470200083C
:10008000470200084702000847020008470200082C
:10009000470200084702000847020008470200081C
:1000A000470200084702000847020008470200080C
:1000B0004702000847020008596F0008470200087D
:1000C00047020008470200084702000847020008EC
:1000D0004702000899730008470200084702000819
:1000E00047020008470200084702000847020008CC
:1000F00047020008470200084702000847020008BC
:1001000047020008470200084702000847020008AB
:10011000470200084702000847020008470200089B
:10012000470200084702000847020008470200088B
:1001300000F002F800F06BF80AA090E8000C82448E
:100140008344AAF10107DA4501D100F060F8AFF26B
:10015000090EBAE80F0013F0010F18BFFB1A43F0A5
:10016000010318479C970000BC9700000A444FF019
:10017000000C10F8013B13F0070408BF10F8014B06
:100180001D1108BF10F8015B641E05D010F8016B4B
:10019000641E01F8016BF9D113F0080F1EBF10F8AF
:1001A000014BAD1C0C1B09D16D1E58BF01F801CBD2
:1001B000FAD505E014F8016B01F8016B6D1EF9D555
:1001C0009142D6D37047000000230024002500266A
:1001D000103A28BF78C1FBD8520728BF30C148BFAA
:1001E0000B607047642901F08F81752901F08C81C3
:1001F000782901F0C581632901F02483732901F076
:100200002983002070471FB51FBD10B510BD01F038
:100210005BFB1146FFF7F7FF07F04EF901F079FBA2
:1002200003B4FFF7F2FF03BC07F0FBF8094880476F
:1002300009480047FEE7FEE7FEE7FEE7FEE7FEE7C8
:10024000FEE7FEE7FEE7FEE704480549054A064BE0
:1002500070470000016F000831010008483300209A
:100260004839002048350020483500202DE9F04F5E
:100270004FF0000C4FF0000301EB9C5EBEF9025002
:10028000BEF900400EF5806EBEF90290BEF9008006
:100290000EF5806EBEF90270BEF900600EF5806E3C
:1002A000BEF902B0BEF900A00EF5806ED044D9446C
:1002B000A8EB4A0AA9EB4B0B4FEAA4044FEAA505A9
:1002C00004EBA60405EBA705A4EB6606A5EB670700
:1002D00004EBA80405EBA905A4EB6808A5EB6909E4
:1002E00006EBAB06A7EBAA07A6EB6B0B07EB6A0ABC
:1002F000458020F8044B478020F8046BA0F802905A
:1003000020F8048BA0F802A020F804BB03F101033D
:1003100093FAA3FCB3F5807FAED1A0EB82014FF03E
:10032000100312090FF2341000F1000006B403EBC1
:10033000430C6144A2F5803202EB8332B1F90250E2
:10034000B1F90040A1EB0301B0F902B0B0F900A08F
:1003500000F10400A5EB040E0EFB0BFC0AEB4B0EA8
:1003600005FB0ACB04FB0ECAB1F90250B1F90040FB
:10037000A1EB0301B0F90290B0F9008000F1040094
:10038000A5EB040E0EFB09FC08EB490E05FB08C9A2
:1003900004FB0EC8B1F90250B1F90040A1EB030112
:1003A000B0F90270B0F9006000F10400A5EB040E92
:1003B0000EFB07FC06EB470E05FB06C704FB0EC64B
:1003C000B1F90250B1F9004001F10001D044D94423
:1003D000A8EB4A0AA9EB4B0B4FEAA4044FEAA50588
:1003E00004EB264405EB2745A4EBE636A5EBE737FF
:1003F00004EB284405EB2945A4EBE838A5EBE939E3
:1004000006EB2B46A7EB2A47A6EBEB3B07EBEA3ABA
:100410004D800C8019444F800E801944A1F8029041
:10042000A1F800801944A1F802A021F804BBB2F59C
:10043000803283DA03EB430C6144A2F101025FEAEC
:10044000024E18BFA0EB0C007FF476AF06BC4FEA5B
:10045000830392087FF46AAFBDE8F08F004000008C
:1004600000400000004000005DDD213BA3227E181B
:100470000000412D7EA5412D0000412D00C000400F
:100480005DDD82E75DDD213B7EA5412D0040000062
:100490000040000000400000AA2A94126B39460672
:1004A00049327C0CA8118E2349327C0CA3227E1881
:1004B00021F77931AA2A9412A8118E235DDD213B00
:1004C000A3227E180000412D95C6B13F461A2B1E6F
:1004D00058EE3735BEB4C53EA8118E235DDD213BF5
:1004E00063A97138DF089A28B7CDC53E7EA5412D96
:1004F0000000412D00C0004063A92B1E21F7793177
:10050000BEB4C53EBEB47C0C58EE373561AC213B61
:1005100095C6BAF9BAE571383BA737355DDD82E794
:100520005DDD213B7EA5412D21F766D756D53F3DA8
:100530003BA78E23A811C9CAB7CDC53E61AC7E18B2
:10054000AA2AC1C295C6B13FBEB47C0C00400000CF
:1005500000400000004000001E3BB504693E9201CF
:10056000C83C2403EB356409C83C24036B394606B8
:100570006C30060E1E3BB504EB356409AA2A9412B2
:100580006B39460649327C0CAE240917AF37D607C3
:10059000882E8D0F7E1E5D1BEB356409AA2A9412EE
:1005A00024188C1F1E34F10AB3269015A8118E232F
:1005B00049327C0CA3227E18140B60276C30060E87
:1005C0007E1E5D1B7104FB2A882E8D0F461A2B1E82
:1005D000C7FD5A2E9D2C1211FE15E72021F7793107
:1005E000AA2A9412A8118E2387F05334B228131428
:1005F000480D202602EAE536B3269015DF089A2832
:100600009CE32B39AE2409177104FB2A5DDD213BE5
:10061000A3227E180000412D4ED7C53C9320EF1930
:100620008FFB6C2F78D1153E7E1E5D1B21F7793133
:10063000E2CB0F3F641CC61CB8F2683395C6B13FCD
:10064000461A2B1E58EE373597C1FB3F24188C1FD6
:1006500002EAE536F0BCEC3FFE15E720BAE571385A
:10066000A6B8853FD5133D2282E1DB39BEB4C53E35
:10067000A8118E235DDD213B40B1AF3D790FDA2417
:100680004DD9423C2EAE423C480D202656D53F3D2A
:100690008EAB823A140B602778D1153E63A971386E
:1006A000DF089A28B7CDC53EB1A71236A906CE29D4
:1006B00015CA4F3F78A668337104FB2A95C6B13F2F
:1006C000BCA576303902212C38C3EC3F7EA5412DE4
:1006D0000000412D00C00040BCA5CE29C7FD5A2E08
:1006E000F0BCEC3F78A620268FFB6C2F09BAB13FF7
:1006F000B1A73D2257F976304DB74F3F63A92B1E66
:1007000021F77931BEB4C53E8EABEF19ECF47432EB
:100710005EB2153E2EAE9015B8F268332DB03F3D57
:1007200040B1121187F053342EAE423CBEB47C0C63
:1007300058EE373561AC213BA6B8D6072BEC123604
:10074000C8AADB39F0BC240302EAE53663A9713894
:1007500097C16EFEDCE7B03734A8E53695C6BAF926
:10076000BAE571383BA73735E2CB0FF59CE32B395F
:1007700078A6683378D173F082E1DB39EDA5793161
:100780004ED7EDEB6DDF823A99A56C2F5DDD82E7E8
:100790005DDD213B7EA5412D9CE33AE352DBB63B78
:1007A00099A5FB2A02EA19DF4DD9423CEDA59A280A
:1007B00087F026DB4ED7C53C78A6202621F766D7E2
:1007C00056D53F3D3BA78E23C7FDDFD363D3AF3D57
:1007D00034A8E720710494D078D1153E63A92B1E6C
:1007E000140B8CCD94CF723EC8AA5D1BA811C9CA48
:1007F000B7CDC53E61AC7E18241850C8E2CB0F3F80
:100800002EAE90157E1E25C615CA4F3F2DB09412F0
:10081000AE244AC451C8853F5EB28D0FAA2AC1C218
:1008200095C6B13FBEB47C0C6C308EC1E2C4D43FDF
:100830004DB76409EB35B1C038C3EC3F09BA460681
:100840001E3B2CC097C1FB3FF0BC240300400000BE
:100850000040000000400000D03E2E019B3F65009C
:10086000363FC9009A3D5B02363FC900693E92019E
:100870005F3C8803D03E2E019A3D5B021E3BB504CF
:10088000693E9201C83C2403D939E205023EF701D2
:10089000F43BED038E380E079A3D5B021E3BB50418
:1008A0003F373908313DC002463A7E05EB356409D1
:1008B000C83C24036B39460692348E0A5F3C880399
:1008C0008E380E073433B70BF43BED03AF37D60742
:1008D000D231DF0C8A3B5104CE369D086C30060EB7
:1008E0001E3BB504EB356409022F2B0FB23A1A05F3
:1008F00005352B0A932D5010463A7E051E34F10A19
:10090000212C7311D939E2053433B70BAA2A94127A
:100910006B39460649327C0C3129B413FD38AA06DE
:100920005B31410DB327D2148E380E076C30060EA2
:100930003226EE151F3872077B2FCA0EAE24091718
:10094000AF37D607882E8D0F262321183F37390859
:10095000932D50109C213719CE369D089D2C1211D5
:100960000E204B1A5D360109A42BD3117E1E5D1B90
:10097000EB356409AA2A9412EB1C6C1C7835C70964
:10098000AF295413561B791D05352B0AB2281314B1
:10099000BE19841E92348E0AB327D21424188C1FD9
:1009A0001E34F10AB326901588169120A933540BF2
:1009B000B1254C16EA1493213433B70BAE24091732
:1009C0004A139222BF321A0CA923C417A8118E23EE
:1009D00049327C0CA3227E1805108824D231DF0C0A
:1009E0009C213719610E7E255B31410D9320EF1953
:1009F000BB0C7126E430A40D891FA71A140B6027C5
:100A00006C30060E7E1E5D1B6D094C28F42F680E9F
:100A1000721D121CC40735297B2FCA0E641CC61C0C
:100A20001B061A2A022F2B0F561B791D7104FB2A55
:100A3000882E8D0F461A2B1EC702D82B0E2EEE0FB6
:100A40003519DC1E1C01B22C932D501024188C1F5C
:100A500072FF882D182DB11011173A20C7FD5A2E9C
:100A60009D2C1211FE15E7201DFC282F212C73113F
:100A7000EA14932173FAF22FA42BD311D5133D223C
:100A8000CAF8B830282B3412BF12E72221F7793187
:100A9000AA2A9412A8118E2379F536322D2AF4123F
:100AA00091103524D2F3EF32AF295413790FDA24A1
:100AB0002CF2A3333129B413610E7E2587F0533411
:100AC000B2281314480D2026E3EEFF3433287314A4
:100AD0002E0CC12641EDA535B327D214140B602787
:100AE000A1EB483633273115FA09FE2702EAE5362D
:100AF000B3269015DF089A2865E87E373226EE1572
:100B0000C4073529CBE61238B1254C16A906CE29E3
:100B100032E5A1382F25AB168D05652A9CE32B39CC
:100B2000AE2409177104FB2A08E2B0392B2466179A
:100B300055038F2B77E0303AA923C4173902212CB3
:100B4000E9DEAB3A262321181C01B22C5DDD213BE6
:100B5000A3227E180000412DD5DB923B1F22DB181B
:100B6000E4FECF2D4FDAFD3B9C213719C7FD5A2EED
:100B7000CDD8643C17219319ABFCE42E4ED7C53C6D
:100B80009320EF198FFB6C2FD3D5213D0E204B1AEC
:100B900073FAF22F5CD4783D891FA71A57F9763083
:100BA000E8D2C93D041F021B3CF8F93078D1153E4C
:100BB0007E1E5D1B21F779310CD05C3EF81DB81B01
:100BC00006F6F831A5CE9D3E721D121CECF474326F
:100BD00041CDD83EEB1C6C1CD2F3EF32E2CB0F3F81
:100BE000641CC61CB8F2683388CA403FDD1B201D58
:100BF0009FF1DF3332C96B3F561B791D87F05334A9
:100C0000E1C7913FCE1AD31D6FEFC63495C6B13FF1
:100C1000461A2B1E58EE37354EC5CC3FBE19841EE2
:100C200041EDA5350CC4E13F3519DC1E2BEC123625
:100C3000CFC2F13FAD18341F16EB7D3697C1FB3F95
:100C400024188C1F02EAE53665C000409B17E31F9D
:100C5000EFE84B3738BFFF3F11173A20DCE7B037DA
:100C600011BEF83F88169120CBE61238F0BCEC3F5D
:100C7000FE15E720BAE57138D4BBDB3F74153D2182
:100C8000AAE4CF38BFBAC43FEA1493219CE32B39BE
:100C9000AFB9A73F5F14E8218EE28439A6B8853F3B
:100CA000D5133D2282E1DB39A2B75D3F4A13922280
:100CB00077E0303AA5B6303FBF12E7226DDF823AC7
:100CC000AFB5FD3E34123B2364DED33ABEB4C53E1D
:100CD000A8118E235DDD213BD5B3883E1D11E22393
:100CE00057DC6D3BF2B2453E9110352452DBB63BEA
:100CF00015B2FC3D051088244FDAFD3B40B1AF3DF5
:100D0000790FDA244DD9423C71B05B3DED0E2C25B4
:100D10004DD8853CA9AF033D610E7E254ED7C53C1D
:100D2000E8AEA53CD40DCF2551D6033D2EAE423CB6
:100D3000480D202656D53F3D7BADDA3BBB0C7126D6
:100D40005CD4783DD0AC6D3B2E0CC12663D3AF3D57
:100D50002BACFA3AA10B11276DD2E33D8EAB823A50
:100D6000140B602778D1153EF8AA063A870AAF27F8
:100D700085D0453E6AAA8439FA09FE2794CF723E8F
:100D8000E3A9FD386D094C28A5CE9D3E63A97138B5
:100D9000DF089A28B7CDC53EEBA8E1375208E7280F
:100DA000CCCCEB3E7BA84B37C4073529E2CB0F3FB9
:100DB00012A8B13636078129FBCA303FB1A71236D7
:100DC000A906CE2915CA4F3F57A76E351B061A2A0A
:100DD00032C96B3F05A7C6348D05652A51C8853FCA
:100DE000BBA61934FF04B02A72C79C3F78A66833AB
:100DF0007104FB2A95C6B13F3EA6B232E303452BF0
:100E0000BAC5C43F0BA6F83155038F2BE2C4D43FBB
:100E1000E0A53931C702D82B0CC4E13FBCA5763020
:100E20003902212C38C3EC3FA1A5AF2FAA016A2CAF
:100E300066C2F53F8DA5E42E1C01B22C97C1FB3F85
:100E400081A5152E8E00FA2CCAC0FF3F7EA5412D2C
:100E50000000412D00C0004081A56A2C72FF882D42
:100E600038BFFF3F8DA58F2BE4FECF2D73BEFB3F18
:100E7000A1A5B02A56FE152EB0BDF53FBCA5CE29C2
:100E8000C7FD5A2EF0BCEC3FE0A5E72839FD9F2EA8
:100E900032BCE13F0BA6FE27ABFCE42E77BBD43F70
:100EA0003EA611271DFC282FBFBAC43F78A62026D6
:100EB0008FFB6C2F09BAB13FBBA62C2501FBAF2FCE
:100EC00056B99C3F05A7352473FAF22FA6B8853F83
:100ED00057A73B23E5F93430F8B76B3FB1A73D2264
:100EE00057F976304DB74F3F12A83D21CAF8B830B8
:100EF000A5B6303F7BA83A203CF8F93000B60F3F4A
:100F0000EBA8341FAEF739315EB5EB3E63A92B1E5B
:100F100021F77931BEB4C53EE3A9201D93F6B9315E
:100F200022B49D3E6AAA121C06F6F83188B3723EBE
:100F3000F8AA021B79F53632F2B2453E8EABEF19B4
:100F4000ECF474325EB2153E2BACDB185FF4B232B7
:100F5000CDB1E33DD0ACC417D2F3EF3240B1AF3DD9
:100F60007BADAB1645F32C33B5B0783D2EAE901566
:100F7000B8F268332DB03F3DE8AE73142CF2A333C2
:100F8000A9AF033DA9AF54139FF1DF3328AFC53C90
:100F900071B0341213F11934A9AE853C40B112116D
:100FA00087F053342EAE423C15B2EE0FFBEF8D347A
:100FB000B6ADFD3BF2B2CA0E6FEFC63441ADB63BE3
:100FC000D5B3A40DE3EEFF34D0AC6D3BBEB47C0CC6
:100FD00058EE373561AC213BAFB5540BCCED6E35D7
:100FE000F6ABD33AA5B62B0A41EDA5358EAB823AC6
:100FF000A2B70109B6ECDC3529AB303AA6B8D60762
:101000002BEC1236C8AADB39AFB9AA06A1EB4836D9
:101010006AAA8439BFBA7E0516EB7D360FAA2B3932
:10102000D4BB51048CEAB136B7A9CF38F0BC240345
:1010300002EAE53663A9713811BEF70178E918377D
:1010400012A9123838BFC900EFE84B37C5A8B0372E
:1010500065C09BFF65E87E377BA84B3797C16EFE66
:10106000DCE7B03734A8E536CFC240FD53E7E137BF
:10107000F1A77D360CC413FCCBE61238B1A71236AB
:101080004EC5E6FA42E6423874A7A53595C6BAF9C8
:10109000BAE571383BA73735E1C78EF832E5A1389C
:1010A00005A7C63432C963F7AAE4CF38D3A65334B0
:1010B00088CA39F623E4FD38A4A6DF33E2CB0FF566
:1010C0009CE32B3978A6683341CDE6F315E3583914
:1010D00050A6EF32A5CEBFF28EE284392CA6743230
:1010E0000CD098F108E2B0390BA6F83178D173F042
:1010F00082E1DB39EDA57931E8D24FEFFCE0063A29
:10110000D3A5F9305CD42DEE77E0303ABCA576302B
:10111000D3D50CEDF2DF593AA9A5F22F4ED7EDEB5E
:101120006DDF823A99A56C2FCDD8CFEAE9DEAB3AD4
:101130008DA5E42E4FDAB4E964DED33A85A55A2EA4
:10114000D5DB9AE8E1DDFA3A7FA5CF2D5DDD82E7B8
:101150005DDD213B7EA5412DE9DE6DE6DADC473B16
:101160007FA5B22C77E059E557DC6D3B85A5212C96
:1011700008E248E4D5DB923B8DA58F2B9CE33AE354
:1011800052DBB63B99A5FB2A32E52DE2D1DADA3BF8
:10119000A9A5652ACBE624E14FDAFD3BBCA5CE2903
:1011A00065E81DE0CED9203CD3A5352902EA19DF38
:1011B0004DD9423CEDA59A28A1EB18DECDD8643C70
:1011C0000BA6FE2741ED19DD4DD8853C2CA66027E6
:1011D000E3EE1EDCCDD7A53C50A6C12687F026DB6A
:1011E0004ED7C53C78A620262CF231DACFD6E43C87
:1011F000A4A67E25D2F33FD951D6033DD3A6DA2447
:1012000079F551D8D3D5213D05A7352421F766D7E7
:1012100056D53F3D3BA78E23CAF87FD6D8D45B3D39
:1012200074A7E72273FA9BD55CD4783DB1A73D2221
:101230001DFCBBD4DFD3933DF1A79321C7FDDFD3C2
:1012400063D3AF3D34A8E72072FF06D3E8D2C93D8F
:101250007BA83A201C0131D26DD2E33DC5A88C1F7A
:10126000C70261D1F2D1FC3D12A9DC1E710494D0F9
:1012700078D1153E63A92B1E1B06CCCFFED02D3E88
:10128000B7A9791DC40707CF85D0453E0FAAC61C54
:101290006D0947CE0CD05C3E6AAA121C140B8CCD93
:1012A00094CF723EC8AA5D1BBB0CD4CC1CCF883E29
:1012B00029ABA71A610E21CCA5CE9D3E8EABEF19AE
:1012C000051073CB2ECEB13EF6AB3719A811C9CAA3
:1012D000B7CDC53E61AC7E184A1324CA41CDD83E75
:1012E000D0ACC417EA1483C9CCCCEB3E41AD09178E
:1012F0008816E8C857CCFD3EB6AD4C16241850C829
:10130000E2CB0F3F2EAE9015BE19BEC76ECB203F6D
:10131000A9AED214561B31C7FBCA303F28AF1314F5
:10132000EB1CA8C688CA403FA9AF54137E1E25C631
:1013300015CA4F3F2DB094120E20A7C5A3C95D3F1B
:10134000B5B0D3119C212DC532C96B3F40B11211EC
:101350002623B9C4C1C8783FCDB15010AE244AC4C9
:1013600051C8853F5EB28D0F3226E0C3E1C7913F81
:10137000F2B2CA0EB3277BC372C79C3F88B3060E76
:1013800031291CC303C7A73F22B4410DAA2AC1C2F9
:1013900095C6B13FBEB47C0C212C6DC227C6BB3FA5
:1013A0005EB5B70B932D1DC2BAC5C43F00B6F10A96
:1013B000022FD3C14EC5CC3FA5B62B0A6C308EC1CF
:1013C000E2C4D43F4DB76409D2314FC176C4DB3F8C
:1013D000F8B79D08343315C10CC4E13FA6B8D60751
:1013E0009234E0C0A1C3E73F56B90E07EB35B1C058
:1013F00038C3EC3F09BA46063F3788C0CFC2F13F39
:10140000BFBA7E058E3864C066C2F53F77BBB504AF
:10141000D93945C0FEC1F83F32BCED031E3B2CC09C
:1014200097C1FB3FF0BC24035F3C19C030C1FD3FB6
:10143000B0BD5B029A3D0BC0CAC0FF3F73BE9201B4
:10144000D03E03C065C0004038BFC90070470000EF
:101450000FB4044910B503AA029800F0FFF910BCBC
:101460005DF814FB2400002070B50446856900680F
:10147000C10601D5302600E02026C00707D070BD88
:10148000D4E9012130469047206A401C20626D1E3D
:10149000F6D570BD70B5044685690078C00707D1E0
:1014A00070BDD4E9012120209047206A401C2062B1
:1014B0006D1EF6D570BD70B50C460546012A05D0E7
:1014C0002878800600D5EA69002302E0012305E0C0
:1014D0005B1C934202D2E05C0028F9D1A869E618AF
:1014E000C01AA861286A184428622846FFF7BCFF82
:1014F00004E0D5E9012114F8010B9047B442F8D378
:101500002846FFF7C7FF70BD2DE9F04106460024CD
:1015100010687529314616A510D0AFF30080002859
:1015200002DA404213A507E031688A0701D512A507
:1015300002E0490704D511A5012401E0AFF30080C2
:1015400000210A2206F1240709E0B0FBF2FCB0FBFF
:10155000F2F302FB1C00303078541846491C002876
:10156000F3D123462A463046BDE8F04100F007B9E2
:10157000000000002D0000002B00000020000000F3
:1015800070B504460D4621461068AFF300802188EF
:10159000090502D50F4A7A4402E00E4A7A440E3217
:1015A000002104F1240305E000F00F060009965D18
:1015B0005E54491C0028F7D120780023000704D589
:1015C000702D02D009B1022311322046BDE87040CF
:1015D00000F0D5B8988200002DE9F05F89460446F6
:1015E0004FF0000ADFF874B1FB44C0F820A0204699
:1015F000E1688847002874D0252806D0D4E9012165
:101600009047206A401C2062F1E700265F46204692
:10161000E16888472028054607DB312D05D2781977
:1016200010F8200C08B10643F1E7B00701D526F009
:101630000406C4F81CA00027C4F818A02A2D09D05D
:10164000284605F0E7FE38B304EB8708303DC8F8BC
:10165000185019E059F8041B204604EB87029161E9
:10166000E1688847012F054618D1E069002820DA93
:1016700026F020061DE0D8F8180000EB800005EBEE
:1016800040003038C8F818002046E1688847054611
:1016900005F0C0FE0028EED1012F0AD02E2D08D172
:1016A0002046E16888477F1C0546022F46F0200649
:1016B000C4DBA069002803DA404246F00106A061BD
:1016C000F00701D026F010066C2D0BD0682D09D044
:1016D0004C2D39D06A2D35D0742D35D07A2D33D09C
:1016E00016E038E0E1682F4620468847B8420546B4
:1016F00009D16C2F26D04FF48060E1680643204664
:101700008847054604E06C2F1AD04FF480700643DA
:101710000DB3A5F14100192802D8203546F4006622
:101720004A462946204626604E46FEF75BFD80B1BC
:1017300001280BD0F61D26F0070000F1080956E736
:101740004020E4E78020D8E70020D6E706F104092E
:101750004DE7284652E7206ABDE8F09F6E82000000
:10176000704770477047704710B500F089F80068FF
:1017700010BD10B5044600F083F8046010BD2DE9DB
:10178000F0470D4699469246044600F12408016848
:10179000880604D5E06921F01001216000E00120F5
:1017A000A84201DD471B00E00027A1697A1902EB7E
:1017B0000900081AA0612078C00602D42046FFF76D
:1017C00053FE002608E0D4E901211AF806009047EC
:1017D000206A401C761C20624E45F4DB2078C0064F
:1017E0000AD52046FFF740FE06E0D4E9012130206B
:1017F0009047206A401C2062381EA7F10107F4DCE4
:1018000007E0D4E9012118F805009047206A401C40
:101810002062281EA5F10105F3DC2046FFF73AFE01
:101820002078000602D50220BDE8F0870120FBE702
:1018300010B5436913B1AFF3008001E0FFF73BFE41
:10184000012010BD127800F124010A7000224A70B4
:101850000122EDE711684FF0FF32E9E7074B70B561
:101860000D467B4400F015F80446284600F024F8A5
:1018700010B14FF0FF3070BD204670BD375C0000E6
:1018800000487047E832002001694A1C026108786C
:10189000704700B58FB0CDE90131002105910549B0
:1018A0007944CDE9031011466846FFF795FE0FB065
:1018B00000BD0000E5FFFFFF007B00F080007047E7
:1018C00000487047E83200207546FFF7F9FFAE4642
:1018D00005006946534620F00700854618B020B53C
:1018E000FEF7B2FCBDE820404FF000064FF00007C5
:1018F0004FF000084FF0000B21F00701AC46ACE8B8
:10190000C009ACE8C009ACE8C009ACE8C0098D4624
:10191000704710B50446AFF300802046BDE8104084
:10192000FEF77EBC002001E0411C88B20128FBDBF1
:101930007047002001E0411C88B20128FBDB7047A2
:1019400000B585B000BF1648806940F00800144912
:1019500088610846806900F00800009000BF00BF61
:101960004FF4E04001900120029003900320049086
:1019700001A90C4800F0C0FE00224FF48051094834
:1019800001F062F800224FF40051064801F05CF8C3
:1019900000224FF48041034801F056F805B000BD25
:1019A00000100240000C014000B585B000BF154892
:1019B000806940F00800134988610846806900F09A
:1019C0000800009000BF00BF4FF4E07001900120BC
:1019D000029003900320049001A90B4800F08CFEB4
:1019E00000224021084801F02FF8002280210648FB
:1019F00001F02AF800224FF48071034801F024F826
:101A000005B000BD00100240000C01402DE9F04F70
:101A100085B005460E4693461C464FF0804131483E
:101A2000CDE902102F46B04600222F4B38464146E2
:101A300007F066F80746884638464146DDE9022346
:101A400007F03EFA074688463846414607F0B0F9A7
:101A50000190DDF80490C9F30D0901984FEAA03A0E
:101A6000CAF30D0A0E9840F4404004904FF4807081
:101A700000F0ACF84FF4045000F0A8F8BBF1000FF0
:101A80000CD149F480494AF4804A484600F09EF857
:101A9000504600F09BF8049800F098F8BBF1010F55
:101AA0000CD149F400494AF4004A484600F08EF847
:101AB000504600F08BF8049800F088F81CB942F208
:101AC000020000F083F8022C03D142F2280000F05B
:101AD0007DF8012C02D1600300F078F805B0BDE874
:101AE000F08F0000E17A644180842E412DE9F04FAF
:101AF00085B005460E4693461C464FF0804131485E
:101B0000CDE902102F46B04600222F4B3846414601
:101B100006F0F6FF0746884638464146DDE90223CF
:101B200007F0CEF9074688463846414607F040F9A7
:101B30000190DDF80490C9F30D0901984FEAA03A2D
:101B4000CAF30D0A0E9840F4404004904FF48070A0
:101B500000F06EF84FF4045000F06AF8BBF1000F8B
:101B60000CD149F480494AF4804A484600F060F8B4
:101B7000504600F05DF8049800F05AF8BBF1010FF0
:101B80000CD149F400494AF4004A484600F050F8A4
:101B9000504600F04DF8049800F04AF81CB942F2A3
:101BA000020000F045F8022C03D142F2280000F0B8
:101BB0003FF8012C02D1600300F03AF805B0BDE80F
:101BC000F08F0000E17A644180842E4170B50446B4
:101BD0000120154908601549C1F8B80100201249D3
:101BE000091D0860002518E004F4004020B1012020
:101BF0000D49091F086003E000200B49091F086018
:101C0000FFF790FE002008490860FFF78BFE0120D7
:101C10000649C1F8B40164006D1C102DE4DB0120FD
:101C20000149091D086070BDB48121420080214234
:101C300070B504460120154908601549C1F8A00196
:101C400000201249091D0860002518E004F4004036
:101C500020B101200D49091F086003E000200B4955
:101C6000091F0860FFF765FE002008490860FFF7BC
:101C700060FE01200649C1F89C0164006D1C102D16
:101C8000E4DB01200149091D086070BD9C812142EF
:101C90000080214270B5044600252068806800F06D
:101CA0000100F0B12068806820F0010021688860A0
:101CB00000F0D0FE05460EE000F0CCFE401B0228EE
:101CC00009D9A06A40F01000A062E06A40F001006B
:101CD000E062012070BD2068806800F001000028EB
:101CE000EAD10020F6E7000038B5044600250020C0
:101CF00000902068806800F0010080BB2068806848
:101D000040F0010021688860164800681649B0FB61
:101D1000F1F0009002E00098401E0090009800282A
:101D2000F9D100F097FE054613E000F093FE401B4A
:101D300002280ED9A06A40F01000A062E06A40F0CC
:101D40000100E06200BF002084F8240000BF0120F1
:101D500038BD2068806800F001000028E5D0002030
:101D6000F6E700000C00002040420F0000BFFEE735
:101D7000704700002DE9F04F89B000245DE0324843
:101D800030F824000FFA80F92F4850F824004FEA69
:101D9000204A484607F0E8FB80464FF0894107F0AB
:101DA000FBFB07464FF08E4107F0FCFA0546504614
:101DB00007F0DAFB80464FF0894107F0EDFB07465C
:101DC0004FF08E4107F0EEFA06463146304607F0F6
:101DD000E3FB29460290284607F0DEFB01900299BA
:101DE00007F07EFA039007F04FFACDE9040105F001
:101DF00069FD0022154BCDE9060106F081FE07467C
:101E000006F04CFE83465CB94FF08E41584607F011
:101E1000C3FB074607F088FB0D4941F824000AE0A0
:101E20004FF08F41584607F0B7FB074607F07CFBA1
:101E3000074941F82400601C84B2B4F5007F9EDBA2
:101E400009B0BDE8F08F0000602100200000904044
:101E5000602900203EB50446009401200190032033
:101E600002906946074800F091F8064800F0D8FA59
:101E70000A21044800F01CFA024800F037F980B249
:101E80003EBD000078320020F8B504460026002050
:101E9000009000BF94F82400012801D10220F8BD71
:101EA000012084F8240000BF2046FFF7F3FE064619
:101EB000002E62D1A06A20F4885040F00200A06297
:101EC000022000F077FE30490968B1FBF0F04000D5
:101ED000009002E00098401E009000980028F9D180
:101EE0002046FFF701FF2068806840F00800216865
:101EF000886000F0AFFD054611E000F0ABFD401B2F
:101F00000A280CD9A06A20F0020040F01000A0625C
:101F100000BF002084F8240000BF0120BFE7206834
:101F2000806800F008000028E7D12068806840F051
:101F300004002168886000F08DFD054611E000F086
:101F400089FD401B0A280CD9A06A20F0020040F04D
:101F50001000A06200BF002084F8240000BF012010
:101F60009DE72068806800F004000028E7D1A06A9F
:101F700020F0020040F00100A06200BF002084F8C1
:101F8000240000BF30468AE70C00002038B5024626
:101F900000230020009000BF92F82400012801D106
:101FA000022038BD012082F8240000BF48680728BD
:101FB00012D21068406B0C79641E04EB84051F2458
:101FC000AC40A0430D796D1E05EB85050C68AC4057
:101FD00020431468606327E048680D2812D2106817
:101FE000006B0C79E41F04EB84051F24AC40A04374
:101FF0000D79ED1F05EB85050C68AC402043146896
:10200000206311E01068C06A0C790D3C04EB840574
:102010001F24AC40A0430D790D3D05EB85050C68F0
:10202000AC4020431468E06208680A2812D31068A4
:10203000C0680C780A3C04EB44050724AC40A0437C
:102040000D780A3D05EB45058C68AC4020431468CB
:10205000E0600FE0106800690C7804EB4405072489
:10206000AC40A0430D7805EB45058C68AC4020439F
:10207000146820610868102802D00868112827D148
:10208000174C1068A0421ED11068806800F4000050
:10209000F0B91068806840F400001468A060086817
:1020A000102815D10F4800680F4CB0FBF4F000EB7E
:1020B00080004000009002E00098401E00900098D0
:1020C0000028F9D104E0906A40F0200090620123DA
:1020D00000BF002082F8240000BF184661E700001E
:1020E000002401400C00002040420F000146086817
:1020F000C06C70472DE9F0410446002700250026FA
:10210000A84614B90120BDE8F081A06810B1207D77
:1021100000B100BFA06A30B90020E06284F824005A
:10212000204600F097F82046FFF7B4FD0746A06A66
:1021300000F01000002873D1002F7ED1A06A20F497
:10214000885040F00200A0623F4AD4E9000190426A
:1021500008D1E069B0F5402F02D14FF4002002E031
:10216000E06900E0E0690143207B41EA400006436A
:10217000A068B0F5807F02D0A068012802D14FF49A
:10218000807000E000200543207D012811D1207BD4
:1021900038B9A069401E4FF4006141EA4030054360
:1021A00007E0A06A40F02000A062E06A40F0010071
:1021B000E0622068406820F4694028432168486054
:1021C0002068806821490840304321688860A06801
:1021D000B0F5807F02D0A068012802D14FF4807052
:1021E00000E00020B0F5807F03D1208A401E4FEA36
:1021F00000582068C06A20F4700040EA0800216896
:10220000C8622068806812490840B04209D10020A5
:10221000E062A06A20F0020040F00100A06211E03C
:102220000BE0A06A20F0020040F01000A062E06A1B
:1022300040F00100E062012704E0A06A40F01000D5
:10224000A062012738465EE7003C0140FDF7E1FF50
:10225000FE0E1FFF10B586B0044600BF124880690D
:1022600040F40070104988610846806900F40070ED
:10227000019000BF00BF00BF0846806940F0040025
:1022800088610846806900F00400019000BF00BF2B
:1022900002200290032003900020049002A903482A
:1022A00000F02AFA06B010BD0010024000080140FC
:1022B000F8B504460D46002600200090002700F0E7
:1022C000C9FB06462068806800F4807050B1A06A9F
:1022D00040F02000A06200BF002084F8240000BF6E
:1022E0000120F8BD2068406800F48070F8B92068CB
:1022F000C06A00F47000D0B912E0681C80B125B14A
:1023000000F0A8FB801BA8420AD9A06A40F0040094
:10231000A06200BF002084F8240000BF0320E0E793
:102320002068006800F002000028E6D050E002209B
:1023300000F040FC36490968B1FBF0F021680969FA
:10234000344A114091B92168C9689211114069B9A4
:1023500021680969304A114031B92168C968921170
:10236000114009B9142117E0292115E021680969F4
:10237000294A114021B92168C9689211114041B11F
:1023800021680969254A114029B92168C9681140A5
:1023900009B9542100E0FC2100FB01F715E0681C9D
:1023A00080B125B100F056FB801BA8420AD9A06A73
:1023B00040F00400A06200BF002084F8240000BFA9
:1023C00003208EE70098401C00900098B842E6D3A6
:1023D0006FF0120021680860A06A40F40070A062EB
:1023E0002068806800F46020B0F5602F0DD1207B5C
:1023F00058B9A06A20F48070A062A06A00F48050EE
:1024000018B9A06A40F00100A062002069E700004E
:102410000C0000202449922492244912499224005D
:1024200070B50446002500BF94F82400012801D1AE
:10243000022070BD012084F8240000BF2046FFF771
:1024400053FC0546002D77D1A06A40F20121884354
:1024500040F48070A0623C492068884208D13B4823
:10246000006800F4702008B9012002E0002000E0BC
:10247000012078B1A06A20F48010A0622068406832
:1024800000F4806000B3A06A20F4005040F4805053
:10249000A06219E0A06A40F48010A0622B49091FD5
:1024A0002068884203D028492068884204D1274800
:1024B000006800F4806000E0002028B1A06A20F4E9
:1024C000005040F48050A062A06A00F4805020B117
:1024D000E06A20F00600E06201E00020E06200BF58
:1024E000002084F8240000BFC01E21680860206816
:1024F000806800F46020B0F5602F16D11249206882
:10250000884208D11148006800F4702008B9012001
:1025100002E0002000E0012038B12068806840F42B
:10252000A000216888600CE006E02068806840F424
:1025300080102168886004E000BF002084F8240037
:1025400000BF284675E70000002801400424014030
:1025500070B50446002594F82100022803D0042019
:10256000A0630125C1E02068006820F00E0021680A
:1025700008602068006820F00100216808605C495C
:102580002068884252D95A4978392068884201D156
:10259000012047E0564964392068884201D1102063
:1025A00040E0534950392068884201D1801539E014
:1025B0004F493C392068884201D1801432E04C49AF
:1025C00028392068884202D14FF480302AE04849F7
:1025D00014392068884202D14FF4801022E0444927
:1025E0002068884201D140041CE0424920688842AA
:1025F00001D1012016E03F4914312068884201D101
:1026000010200FE03B4928312068884201D1801515
:1026100008E038493C312068884201D1801401E04B
:102620004FF480303349091F086051E03049783950
:102630002068884201D1012047E02D496439206893
:10264000884201D1102040E0294950392068884251
:1026500001D1801539E026493C392068884201D1F2
:10266000801432E0224928392068884202D14FF490
:1026700080302AE01E4914392068884202D14FF484
:10268000801022E01A492068884201D140041CE0F1
:1026900018492068884201D1012016E015491431FB
:1026A0002068884201D110200FE0124928312068AB
:1026B000884201D1801508E00E493C3120688842EB
:1026C00001D1801401E04FF480300949803948601D
:1026D000012084F8210000BF002084F8200000BF02
:1026E000606B10B12046616B8847284670BD0000C2
:1026F00080000240080402402DE9F847024600230A
:102700009C467BE14FF0010808FA03F4D1F8008001
:1027100008EA0400A0427DD1DFF8F4A2D1F80480D9
:10272000A8EB0A09D0453AD014DCB8F1030F50D019
:1027300009DCB8F1000F31D0B8F1010F1CD0B8F1AD
:10274000020F49D120E0B8F1110F18D0B8F1120FE3
:1027500042D11EE0B9F5881F25D006DCB9F5803FCF
:1027600020D0B9F5801F37D11AE0B9F5001F18D075
:10277000B9F5041F30D117E0D1F80CC02DE0D1F825
:102780000C8008F1040C28E0D1F80C8008F1080C4A
:1027900023E0D1F80C8008F10C0C1EE000BF00BF54
:1027A00000BF00BF00BF00BFD1F80880B8F1000F24
:1027B00002D14FF0040C0BE0D1F80880B8F1010F02
:1027C00003D14FF0080C146102E04FF0080C546183
:1027D00003E04FF0000C00E000BF00BFFF2801D86D
:1027E000904601E002F104084646FF2802D84FEA6D
:1027F000830803E0A3F108084FEA88084746D6F8A3
:1028000000804FF00F0909FA07F928EA09080CFAC5
:1028100007F900E07AE048EA0908C6F80080D1F834
:10282000048008F08058B8F1805F6FD100BFDFF8F6
:10283000E481D8F8188048F00108DFF8D891C9F889
:102840001880C846D8F8188008F00108CDF8008034
:1028500000BF00BF4FEAB9384FEA930958F8295032
:102860004FEA83784FEA18794FF00F0808FA09F811
:1028700025EA0805DFF8A081424502D14FF00008A3
:1028800024E0DFF89881424502D14FF001081DE0B5
:10289000DFF88C81424502D14FF0020816E0DFF8E4
:1028A0008481424502D14FF003080FE0DFF87881C0
:1028B000424502D14FF0040808E0DFF8708142453C
:1028C00002D14FF0050801E04FF006084FEA837986
:1028D0004FEA197908FA09F848EA0505DFF8508146
:1028E0004FEA930948F82950D1F8048008F4803859
:1028F000B8F5803F0BD1DFF83C81D8F8008048EA7A
:102900000008DFF83091C9F800800AE075E0DFF8D0
:102910002481D8F8008028EA0008DFF81891C9F867
:102920000080D1F8048008F40038B8F5003F0ED1DB
:10293000DFF8008108F10408D8F8008048EA0008B0
:10294000DFF8F09009F10409C9F800800DE0DFF824
:10295000E48008F10408D8F8008028EA0008DFF8CD
:10296000D49009F10409C9F80080D1F8048008F472
:102970008018B8F5801F0ED1DFF8B88008F108087C
:10298000D8F8008048EA0008DFF8A89009F10809A3
:10299000C9F800800DE0DFF89C8008F10808D8F83D
:1029A000008028EA0008DFF88C9009F10809C9F8CE
:1029B0000080D1F8048008F40018B8F5001F0ED18B
:1029C000DFF8708008F10C08D8F8008048EA0008A9
:1029D000DFF8609009F10C09C9F800800DE0DFF81C
:1029E000548008F10C08D8F8008028EA0008DFF8C5
:1029F000449009F10C09C9F800805B1CD1F80080F3
:102A000028FA03F8B8F1000F7FF47CAEBDE8F88730
:102A1000000011100010024000080140000C0140AD
:102A2000001001400014014000180140001C01404A
:102A30000800014000040140024693680B400BB1BE
:102A4000012000E0002070470AB1016101E00B04A1
:102A500003617047014800687047000014000020BF
:102A60000348006803490978084401490860704731
:102A7000140000201C00002010B50848006840F039
:102A8000100006490860052000F080F80F2000F0D3
:102A900007F800F02BF8002010BD000000200240D5
:102AA00070B504460E4800784FF47A71B1FBF0F02F
:102AB0000C490968B1FBF0F5284600F027FD08B184
:102AC000012070BD102C07D200222146501E00F0BC
:102AD0001EF80548046001E00120F2E70020F0E75D
:102AE0001C0000200C000020180000207047014648
:102AF0000846002809DB00F01F0301229A40430921
:102B00009B0003F1E023C3F8002100BF70472DE9CB
:102B1000F05F80460D461646002704F05FFC07462E
:102B200039462A46334601F00700C0F1070ABAF1D8
:102B3000040F02D94FF0040A01E0C0F1070AD146A0
:102B400000F1040ABAF1070F02D24FF0000A01E0C7
:102B5000A0F1030AD4464FF0010A0AFA09FAAAF1D1
:102B6000010A0AEA020A0AFA0CFA4FF0010B0BFA00
:102B70000CFBABF1010B0BEA030B4AEA0B042146F9
:102B8000404604F033FCBDE8F09F000000BF00F0B9
:102B90000702064B19684FF6FF031940044B0B431D
:102BA00043EA0221014B196000BF70470CED00E0C1
:102BB0000000FA052DE9F04385B0064642A30FCB8D
:102BC00001AC0FC444A0006800904FF0000800253D
:102BD00000270024A146042E36D004DC012E3BD071
:102BE000022E6BD15FE0082E32D0102E66D13B480A
:102BF0004468006800F0807000B301A8C4F383410A
:102C0000475C04F4803070B134484068C0F3404001
:102C10001DF8008004F4803040B13148B0FBF8F07A
:102C200000FB07F502E02F4807FB00F52B48406842
:102C300000F48000B0F5800F01D1A94603E06800E0
:102C40000321B0FBF1F93AE000F0D0F9814636E01B
:102C500000F0CCF9814632E02048046A04F4407068
:102C6000B0F5807F05D104F0020010B14FF40049A7
:102C700018E004F44070B0F5007F07D11748406AAF
:102C800000F0020010B149F640490BE004F4407036
:102C9000B0F5407F06D11148006800F4003008B15B
:102CA0004FF224490BE000F091F90C494968C1F357
:102CB0008131491C4900B0FBF1F900E000BF00BFC1
:102CC000484605B0BDE8F08302030405060708097D
:102CD0000A0B0C0D0E0F1010010200000010024034
:102CE00000127A0000093D00F8B5044600270026CE
:102CF0000025207800F00100002869D04248C06912
:102D000000F0805070B900BF3F48C06940F080506B
:102D10003D49C8610846C06900F08050009000BF7E
:102D200000BF01273948006800F48070B0B9374807
:102D3000006840F4807035490860FFF78BFE064656
:102D400006E0FFF787FE801B642801D90320F8BD49
:102D50002E48006800F480700028F2D02A48006AEB
:102D600000F440752DB3A08800F44070A84220D034
:102D70002548006A20F4407501202549086000209C
:102D800008602148056205F0010090B1FFF762FE7E
:102D9000064608E0FFF75EFE801B41F2883188425C
:102DA00001D90320D3E71848006A00F00200002888
:102DB000F0D01548006A20F4407061680843124959
:102DC0000862012F04D10846C06920F08050C86114
:102DD000207800F00200022807D10B48406820F458
:102DE0004040A168084308494860207800F010007E
:102DF000102807D10448406820F480006169084326
:102E0000014948600020A2E7001002400070004025
:102E10004004424270B504460D460CB9012070BD15
:102E20005A48006800F00700A8420ED257480068D0
:102E300020F007002843554908600846006800F064
:102E40000700A84201D00120E9E7207800F0020045
:102E500002281DD1207800F00400042805D14C4838
:102E6000406840F4E0604A494860207800F008007B
:102E7000082805D14648406840F4605044494860FD
:102E80004348406820F0F000A1680843404948608A
:102E9000207800F0010078B36068012806D13C4832
:102EA000006800F4003090B90120B8E7606802289B
:102EB00006D13748006800F0007040B90120AEE745
:102EC0003348006800F0020008B90120A7E7304845
:102ED000406820F00300616808432D494860FFF70F
:102EE000B9FD064609E0FFF7B5FD801B41F28831C8
:102EF000884202D9032092E707E02548406800F0A5
:102F00000C006168B0EB810FEDD12048006800F043
:102F10000700A8420ED91D48006820F0070028438A
:102F20001A4908600846006800F00700A84201D06E
:102F3000012074E7207800F00400042807D1144829
:102F4000406820F4E060E168084311494860207857
:102F500000F00800082808D10D48406820F46050AF
:102F6000216940EAC1000A49486000F03FF8084979
:102F70004968C1F30311074A515CC840064908601B
:102F800006480068FFF78CFD002048E7002002405B
:102F9000001002401A9800080C00002018000020C1
:102FA00001480068704700000C00002000B5FFF7E2
:102FB000F7FF04494968C1F30221034A515CC84044
:102FC00000BD0000001002402A98000800B5FFF77D
:102FD000E7FF04494968C1F3C221034A515CC84074
:102FE00000BD0000001002402A980008F0B585B02E
:102FF0000FF26C0C9CE8E01001A8A0E8E0101CA502
:103000002D68009500210022002300240020194D86
:10301000696801F00C05F5B1042D02D0082D19D115
:1030200001E0154819E001ADC1F38346AC5D01F440
:10303000803555B10F4D6D68C5F340451DF805202D
:103040000D4D6543B5FBF2F302E00C4D04FB05F3B7
:10305000184602E000BF084800BF00BF05B0F0BD41
:1030600002030405060708090A0B0C0D0E0F1010C9
:10307000010200000010024000127A0000093D0029
:10308000F8B504460CB90120F8BD207800F0010025
:10309000002878D0F848406800F00C0004280CD0D4
:1030A000F548406800F00C00082811D1F24840684B
:1030B00000F48030B0F5803F0AD1EF48006800F49A
:1030C000003000285FD0606800285CD10120DBE779
:1030D00000BF6068B0F5803F06D1E748006840F463
:1030E0008030E549086028E0606858B9E248006827
:1030F00020F48030E04908600846006820F4802011
:1031000008601AE06068B0F5A02F0BD1DA480068BB
:1031100040F48020D84908600846006840F48030B8
:1031200008600AE0D448006820F48030D249086082
:103130000846006820F48020086000BF606888B1FD
:10314000FFF788FC054606E0FFF784FC401B642877
:1031500001D9032098E7C848006800F4003000282F
:10316000F2D010E0FFF776FC054606E0FFF772FCB0
:10317000401B642801D9032086E7BF48006800F49B
:1031800000300028F2D1207800F00200022857D148
:10319000B948406800F00C0050B1B748406800F0F2
:1031A0000C00082818D1B448406800F4803098B961
:1031B000B148006800F0020020B12069012801D068
:1031C000012061E7AC48006820F0F800616940EA3E
:1031D000C100A949086033E02069E8B10120A7498E
:1031E0000860FFF737FC054606E0FFF733FC401B9D
:1031F000022801D9032047E79F48006800F0020039
:103200000028F2D09C48006820F0F800616940EA8C
:10321000C1009949086013E0002098490860FFF751
:1032200019FC054606E0FFF715FC401B022801D9F2
:10323000032029E79048006800F002000028F2D13E
:10324000207800F0080008282DD1A069B8B101202D
:103250008B490860FFF7FEFB054606E0FFF7FAFB27
:10326000401B022801D903200EE78348406A00F082
:1032700002000028F2D0012003F0F0FD13E000204E
:103280007F490860FFF7E6FB054606E0FFF7E2FB33
:10329000401B022801D90320F6E67748406A00F077
:1032A00002000028F2D1207800F00400042873D135
:1032B00000277148C06900F0805070B900BF6E48A7
:1032C000C06940F080506C49C8610846C06900F090
:1032D0008050009000BF00BF01276A48006800F4DA
:1032E0008070B0B96748006840F480706549086034
:1032F000FFF7B0FB054606E0FFF7ACFB401B642878
:1033000001D90320C0E65F48006800F480700028FF
:10331000F2D000BFE068012806D15748006A40F0AB
:1033200001005549086227E0E06858B95248006A30
:1033300020F00100504908620846006A20F00400AD
:10334000086219E0E06805280BD14B48006A40F09C
:103350000400494908620846006A40F0010008621A
:103360000AE04548006A20F0010043490862084627
:10337000006A20F00400086200BFE068A0B1FFF717
:1033800069FB054609E0FFF765FB401B41F2883108
:10339000884202D9032077E622E03748006A00F02D
:1033A00002000028EFD012E0FFF754FB054608E0CA
:1033B000FFF750FB401B41F28831884201D90320BE
:1033C00062E62D48006A00F002000028F0D1012FCB
:1033D00005D12948C06920F080502749C86100BF45
:1033E000E069C8B32448406800F00C00082860D0A9
:1033F000E069022848D1002020490866FFF72AFB2F
:10340000054606E0FFF726FB401B022801D90320F2
:103410003AE61948006800F000700028F2D1206AEE
:10342000B0F5803F07D11448406820F40030A1680F
:10343000084311494860D4E9080108430E49496826
:1034400021F4741108430C49486001200B490866B7
:10345000FFF700FB054607E03DE0FFF7FBFA401BE6
:10346000022801D903200FE60348006800F000702D
:103470000028F2D02FE0000000100240000042427D
:103480008004424200700040002014490866FFF7A3
:10349000E1FA054606E0FFF7DDFA401B022801D9F4
:1034A0000320F1E50E48006800F000700028F2D11A
:1034B00011E0E069012800D1E6E50948466806F414
:1034C0008031206A814204D106F47011606A814221
:1034D00001D00120D8E50020D6E5000000004242DE
:1034E00000100240042808D14FF0E021096941F0A2
:1034F00004014FF0E022116107E04FF0E02109697B
:1035000021F004014FF0E0221161704770B50446CC
:103510002546681EB0F1807F01D301200FE0681EB0
:103520004FF0E02148610F214FF0FF3003F05EFFC4
:1035300000204FF0E021886107200861002070BD65
:1035400010B504460CB9012010BD94F83D0028B90F
:10355000002084F83C00204600F00CF8022084F89B
:103560003D00211D206803F019FD012084F83D0075
:103570000020E9E7704701460868C06840F0010094
:103580000B68D8600868806800F00702062A05D03A
:103590000868006840F001000B6818600020704760
:1035A000704701460022002391F8392091F83A3003
:1035B00042EA0300704700002DE9F0470446206806
:1035C00005682068C668206847694FF00008C14652
:1035D00005F00F08B8F1000F0AD105F0200038B14E
:1035E00006F0200020B1204603F07EFDBDE8F08704
:1035F000B8F1000F6DD007F0010018B906F4907013
:10360000002866D005F0010030B106F4807018B1D2
:10361000E06B40F00100E06305F0040030B107F01A
:10362000010018B1E06B40F00200E06305F0020019
:1036300030B107F0010018B1E06B40F00400E06326
:1036400005F0080030B107F0010018B1E06B40F060
:103650000800E063E06B68B305F0200028B106F0D5
:10366000200010B1204603F03FFD20684069C0F300
:103670008019E06B00F0080010B9B9F1000F22D0FA
:10368000204603F011FD2068406900F04000B0B111
:103690002068406920F0400021684861606B50B1AB
:1036A0001748616B4863606BFEF752FF10B1606BA7
:1036B000416B88470CE02046FFF772FF08E0204688
:1036C000FFF76EFF04E02046FFF76AFF0020E0638B
:1036D0008CE705F0800030B106F0800018B120467C
:1036E00003F026FE82E705F0400030B106F040000E
:1036F00018B1204603F0E8FC78E700BF76E7000049
:103700009570000810B504460CB9012010BDA069E1
:1037100000B100E000BF94F8390028B9002084F817
:103720003800204600F028F8242084F8390020686A
:10373000C06820F400502168C860204603F028FDCE
:103740002068006920F49040216808612068406981
:1037500020F02A00216848612068C06840F40050C9
:103760002168C8600020E063202084F8390084F8D4
:103770003A000020CAE7000010B586B0044625498B
:103780002068884244D100BF2348806940F004008B
:10379000214988610846806900F00400019000BF5B
:1037A00000BF00BF0846806940F480408861084639
:1037B000806900F48040019000BF00BF00BF084650
:1037C000806940F0010088610846806900F00100CE
:1037D000019000BF00BF4815029002200390012015
:1037E00004900320059002A90C48FEF785FF4FF4D2
:1037F000806002900020039002A90848FEF77CFF39
:103800002520FFF774F9032211462520FFF77FF9E1
:1038100006B010BD00380140001002400008014011
:1038200010B5034693F83A0020282FD101B10AB908
:10383000012010BD00BF93F83800012801D10220FB
:10384000F7E7012083F8380000BF99629A85DA858E
:103850000020D863222083F83A0000BF002083F8BC
:10386000380000BF1868C06840F480701C68E060D1
:103870001868406940F001001C6860611868C06801
:1038800040F020001C68E0600020D2E70220D0E772
:103890001D4A0168914236D11C49098801F4004152
:1038A00089BB1A49098801F4804171B11849097826
:1038B0000A2903D00021154A118024E01349098800
:1038C00041F40041114A11801DE0114909780D2988
:1038D00006D10E49098841F480410C4A118012E05A
:1038E0000B490978094A1288C2F30D02094B995411
:1038F00006490988491C054A118011460988C729CB
:1039000001DD0021118070470038014028000020AF
:103910002A00002060310020704700BFFEE7000051
:1039200000B585B000BF1C48806940F004001A490A
:1039300088610846806900F00400009000BF00BF65
:1039400000BF0846806940F0100088610846806921
:1039500000F01000009000BF00BF01200190002087
:103960000290022003900320049001A90B48FEF767
:10397000C3FE4FF4004001900120039001A90748C5
:10398000FEF7BAFE202001900120039001A904480F
:10399000FEF7B2FE05B000BD001002400008014075
:1039A0000010014010B50446012C01D124490870D3
:1039B0002348007868B320212248FFF73DF858B12A
:1039C0004FF400412048FFF737F828B101211E4885
:1039D000FFF732F801281CD10A2003F02FFD002048
:1039E0001749087020211748FFF726F808B9012069
:1039F00010BD4FF400411448FFF71EF808B902202B
:103A0000F6E701211048FFF717F8012815D1032028
:103A1000EEE720210B48FFF70FF801280DD1C10375
:103A20000948FFF709F8012807D101210648FFF7E7
:103A300003F810B90120024908700020D8E70000FF
:103A400010000020001001400008014070B504463D
:103A500000260E480588408845430021084602F0AC
:103A6000E1FF03F071F900BF0DE04FF480700849E9
:103A7000086140004861074804608020486108618F
:103A800080000861761CAE42EFD370BD6832002022
:103A9000001001400C0C014010B5044649488471E7
:103AA000002C45D1F020474908804FF4A070488091
:103AB0000846808845F21051884210D14FF43050AA
:103AC000404908814FF4285048814FF42C50888198
:103AD0004FF4F07008804FF4487048801AE039487D
:103AE000808841F6631188420DD12C203549088128
:103AF0002B2048812A2088814FF4F07008804FF4F1
:103B00004870488006E02C202E4908812A204881F0
:103B10002B2088812B48808845F2103188424CD177
:103B20004FF4A070274908804FF4F070488044E0BB
:103B30004FF4A07023490880F02048800846808810
:103B400045F21051884210D14FF430501D49088180
:103B50004FF4285048814FF42C5088814FF448701E
:103B600008804FF4F07048801AE01648808841F6CB
:103B7000631188420DD12C20124908812A204881E6
:103B80002B2088814FF4487008804FF4F0704880F3
:103B900006E02C200B4908812A2048812B208881AF
:103BA0000848808845F21031884206D14FF4F07001
:103BB000044908804FF4A0704880002002F062FDA4
:103BC00010BD00006832002000B585B000BFFE487F
:103BD000806940F00800FC4988610846806900F06F
:103BE0000800009000BF00BF00BF0846806940F099
:103BF000100088610846806900F01000009000BF46
:103C000000BF4FF4F8600190012002900390032060
:103C1000049001A9ED48FEF76FFD4FF6FF7001908B
:103C200001A9EB48FEF768FD00BFEA49486820F0AB
:103C3000E06040F08060486000BF322003F0FEFB8F
:103C40000121002003F088F8322003F0F7FBD32095
:103C500003F068F802F07CFCDF49888002F078FC11
:103C6000DD49888002F074FCDB4988800846808842
:103C70004FF6FF7101EA0020D749888002F068FC06
:103C8000D54989880843D44988800846808849F204
:103C9000413188427DD0042003F044F802F058FC02
:103CA000CD49888002F054FCCB49888002F050FC5A
:103CB000C9498880084680884FF6FF7101EA0020D4
:103CC000C549888002F044FCC34989880843C24939
:103CD00088800846808848F25251884203D147F2D2
:103CE0008970BD498880BC48808847F289718842C4
:103CF000D0D0D42003F016F802F02AFCB649888010
:103D000002F026FCB449888002F022FCB249888087
:103D1000084680884FF6FF7101EA0020AE4988808E
:103D200002F016FCAC4989880843AB4988800846F4
:103D3000808845F21031884262D055214FF470409E
:103D400003F00AF8AA214FF2010003F005F852210E
:103D50004FF2020003F000F808214FF2030002F0D6
:103D6000FBFF01214FF2040002F0F6FF4FF4454043
:103D700002F0D8FF02F0ECFB974988800846808863
:103D80004FF6FF7101EA0020934988804CF2015000
:103D900000E035E002F0C6FF02F0DAFB8E498988C8
:103DA00008438D498880052003F048FB8A488088B5
:103DB00045F21051884223D0A12002F0B3FF02F057
:103DC000C7FB8549888002F0C3FB83498880084689
:103DD00080884FF6FF7101EA00207F49888002F059
:103DE000B7FB7D49898808437B49888008468088DD
:103DF00045F26171884203D141F6631076498880AB
:103E00007548818875A0FDF723FB7348808849F2C7
:103E1000413188427ED1CF2002F084FF002002F0A1
:103E20006FFFC12002F06CFF302002F069FFED202F
:103E300002F078FF642002F063FF032002F060FFCD
:103E4000122002F05DFF812002F05AFFE82002F00C
:103E500069FF852002F054FF102002F051FF7A2004
:103E600002F04EFFCB2002F05DFF392002F048FF48
:103E70002C2002F045FF002002F042FF342002F027
:103E80003FFF022002F03CFFF72002F04BFF202012
:103E900002F036FFEA2002F045FF002002F030FF7A
:103EA000002002F02DFFC02002F03CFF1B2002F09A
:103EB00027FFC12002F036FF012002F021FFC520BC
:103EC00002F030FF302002F01BFF302002F018FF1C
:103ED000C72002F027FFB72002F012FF362002F0C1
:103EE00021FF482002F00CFF3A2002F01BFF552072
:103EF00002F006FFB12002F015FF002002F000FFE3
:103F00001A2002F0FDFEB62002F00CFF0A2002F09B
:103F1000F7FE00E0AAE0A22002F0F2FEF22002F09A
:103F200001FF002002F0ECFE262002F0FBFE012043
:103F300002F0E6FEE02002F0F5FE0F2002F0E0FEC7
:103F40002A2002F0DDFE282002F0DAFE082002F02E
:103F5000D7FE0E2002F0D4FE082002F0D1FE54203D
:103F600002F0CEFEA92002F0CBFE432002F0C8FEF4
:103F70000A2002F0C5FE0F2002F0C2FE002002F06F
:103F8000BFFE002002F0BCFE002002F0B9FE0020BF
:103F900002F0B6FEE12002F0C5FE002002F0B0FE05
:103FA000152002F0ADFE172002F0AAFE072002F055
:103FB000A7FE112002F0A4FE062002F0A1FE2B2095
:103FC00002F09EFE562011E0001002400010014059
:103FD000000C01400000014068320020204C4344A6
:103FE0002049443A25780D0A0000000002F088FEBE
:103FF0003C2002F085FE052002F082FE102002F037
:104000007FFE0F2002F07CFE3F2002F079FE3F2071
:1040100002F076FE0F2002F073FE2B2002F082FEEB
:10402000002002F06DFE002002F06AFE012002F086
:1040300067FE3F2002F064FE2A2002F073FE00209B
:1040400002F05EFE002002F05BFE002002F058FE4F
:10405000EF2002F055FE112002F064FE782003F0FC
:10406000EDF9292002F05EFE02F05FBAFE4880887A
:1040700047F2897188427CD1112002F053FE7820EA
:1040800003F0DCF9362002F04DFE002002F038FE8D
:104090003A2002F047FE052002F032FEB22002F084
:1040A00041FE0C2002F02CFE0C2002F029FE002024
:1040B00002F026FE332002F023FE332002F020FE21
:1040C000B72002F02FFE352002F01AFEBB2002F0CE
:1040D00029FE322002F014FEC02002F023FE0C2044
:1040E00002F00EFEC22002F01DFE012002F008FECA
:1040F000C32002F017FE102002F002FEC42002F0DE
:1041000011FE202002F0FCFDC62002F00BFE0F2065
:1041100002F0F6FDD02002F005FEA42002F0F0FD32
:10412000A12002F0EDFDE02002F0FCFDD02002F025
:10413000E7FD002002F0E4FD022002F0E1FD07208F
:1041400002F0DEFD0A2002F0DBFD282002F0D8FD9F
:10415000322002F0D5FD442002F0D2FD422002F0D0
:10416000CFFD062002F0CCFD0E2002F0C9FD12208A
:1041700000E056E002F0C4FD142002F0C1FD17205B
:1041800002F0BEFDE12002F0CDFDD02002F0B8FD2E
:10419000002002F0B5FD022002F0B2FD072002F07F
:1041A000AFFD0A2002F0ACFD282002F0A9FD31206D
:1041B00002F0A6FD542002F0A3FD472002F0A0FD6E
:1041C0000E2002F09DFD1C2002F09AFD172002F047
:1041D00097FD1B2002F094FD1E2002F091FD2A2085
:1041E00002F0A0FD002002F08BFD002002F088FD0F
:1041F000002002F085FDEF2002F082FD2B2002F06E
:1042000091FD002002F07CFD002002F079FD0120EC
:1042100002F076FD3F2002F073FD292002F082FDBE
:1042200022E79148808845F21031884240F07C872F
:10423000ED2002F077FD012002F062FDFE2002F089
:104240005FFDEE2002F06EFDDE2002F059FD212020
:1042500002F056FDF12002F065FD012002F050FD54
:10426000DF2002F05FFD102002F04AFDC42002F0C2
:1042700059FD8F2002F044FDC62002F053FD0020BE
:1042800002F03EFDE22002F03BFDE22002F038FDAC
:10429000E22002F035FDBF2002F044FDAA2002F02A
:1042A0002FFDB02002F03EFD0D2002F029FD002080
:1042B00002F026FD0D2002F023FD002002F020FD7B
:1042C000112002F01DFD002002F01AFD192002F05D
:1042D00017FD002002F014FD212002F011FD002046
:1042E00002F00EFD2D2002F00BFD002002F008FD73
:1042F0003D2002F005FD002002F002FD5D2002F0ED
:10430000FFFC002002F0FCFC5D2002F0F9FC002024
:1043100002F0F6FCB12002F005FD802002F0F0FC76
:10432000002002F0EDFC8B2002F0EAFC002002F0FD
:10433000E7FC962002F0E4FC002002F0E1FCB22051
:1043400002F0F0FC002002F0DBFC002002F0D8FCC0
:10435000022002F0D5FC002002F0D2FC032002F083
:10436000CFFC002002F0CCFCB32002F0DBFC0020EC
:1043700002F0C6FC002002F0C3FC002002F0C0FCEA
:10438000002002F0BDFC002002F0BAFC002002F088
:10439000B7FC002002F0B4FC002002F0B1FC0020C9
:1043A00002F0AEFC002002F0ABFC002002F0A8FC02
:1043B000002002F0A5FC002002F0A2FC002002F088
:1043C0009FFC002002F09CFC002002F099FC0020E1
:1043D00002F096FC002002F093FC002002F090FC1A
:1043E000002002F08DFC002002F08AFC002002F088
:1043F00087FC002002F084FC002002F081FCB42045
:1044000002F090FC8B2002F07BFC002002F078FC94
:10441000962002F075FC002002F072FCA12002F050
:104420006FFC002002F06CFCB52002F07BFC022047
:1044300002F066FC002002F063FC032002F060FC46
:10444000002002F05DFC042002F05AFC002002F083
:1044500057FCB62002F066FC002002F051FC002060
:1044600002F04EFCB72001E06832002002F05AFC56
:10447000002002F045FC002002F042FC3F2002F048
:104480003FFC002002F03CFC5E2002F039FC0020E2
:1044900002F036FC642002F033FC002002F030FC15
:1044A0008C2002F02DFC002002F02AFCAC2002F04F
:1044B00027FC002002F024FCDC2002F021FC00207C
:1044C00002F01EFC702002F01BFC002002F018FC21
:1044D000902002F015FC002002F012FCEB2002F00C
:1044E0000FFC002002F00CFCDC2002F009FC002094
:1044F00002F006FCB82002F015FC002002F000FCDF
:10450000002002F0FDFB002002F0FAFB002002F088
:10451000F7FB002002F0F4FB002002F0F1FB00208A
:1045200002F0EEFB002002F0EBFBBA2002F0FAFBF7
:10453000242002F0E5FB002002F0E2FB002002F064
:10454000DFFB002002F0DCFBC12002F0EBFB2020AF
:1045500002F0D6FB002002F0D3FB542002F0D0FB87
:10456000002002F0CDFBFF2002F0CAFB002002F089
:10457000C7FBC22002F0D6FB0A2002F0C1FB0020DC
:1045800002F0BEFB042002F0BBFB002002F0B8FBEF
:10459000C32002F0C7FB3C2002F0B2FB002002F077
:1045A000AFFB3A2002F0ACFB002002F0A9FB39205F
:1045B00002F0A6FB002002F0A3FB372002F0A0FBD4
:1045C000002002F09DFB3C2002F09AFB002002F04C
:1045D00097FB362002F094FB002002F091FB322082
:1045E00002F08EFB002002F08BFB2F2002F088FBF4
:1045F000002002F085FB2C2002F082FB002002F05C
:104600007FFB292002F07CFB002002F079FB2620B2
:1046100002F076FB002002F073FB242002F070FB16
:10462000002002F06DFB242002F06AFB002002F063
:1046300067FB232002F064FB002002F061FB3C20BA
:1046400002F05EFB002002F05BFB362002F058FB1C
:10465000002002F055FB322002F052FB002002F055
:104660004FFB2F2002F04CFB002002F049FB2C20D6
:1046700002F046FB002002F043FB292002F040FB41
:10468000002002F03DFB262002F03AFB002002F061
:1046900037FB242002F034FB002002F031FB242001
:1046A00002F02EFB002002F02BFB232002F028FB5F
:1046B000002002F025FBC42002F034FB622002F04F
:1046C0001FFB002002F01CFB052002F019FB00205C
:1046D00002F016FB842002F013FB002002F010FB16
:1046E000F02002F00DFB002002F00AFB182002F07F
:1046F00007FB002002F004FBA42002F001FB0020D5
:1047000002F0FEFA182002F0FBFA002002F0F8FA9C
:10471000502002F0F5FA002002F0F2FA0C2002F02C
:10472000EFFA002002F0ECFA172002F0E9FA00207C
:1047300002F0E6FA952002F0E3FA002002F0E0FA37
:10474000F32002F0DDFA002002F0DAFAE62002F0AF
:10475000D7FA002002F0D4FAC52002F0E3FA3220A2
:1047600002F0CEFA002002F0CBFA442002F0C8FAA0
:10477000002002F0C5FA652002F0C2FA002002F023
:10478000BFFA762002F0BCFA002002F0B9FA8820C5
:1047900002F0B6FA002002F0B3FAC62002F0C2FA24
:1047A000202002F0ADFA002002F0AAFA172002F051
:1047B000A7FA002002F0A4FA012002F0A1FA0020DA
:1047C00002F09EFAC72002F0ADFA002002F098FA3B
:1047D000002002F095FA002002F092FA002002F088
:1047E0008FFAC82002F09EFA002002F089FA002019
:1047F00002F086FA002002F083FA002002F080FA2C
:10480000C92002F08FFA002002F07AFA002002F0AC
:1048100077FA002002F074FA002002F071FA00200A
:1048200002F06EFA002002F06BFA002002F068FA43
:10483000002002F065FA002002F062FA002002F087
:104840005FFA002002F05CFA002002F059FA002022
:1048500002F056FA002002F053FA002002F050FA5B
:10486000002002F04DFAE02002F05CFA162002F07F
:1048700047FA002002F044FA1C2002F041FA00201E
:1048800002F03EFA212002F03BFA002002F038FA52
:10489000362002F035FA002002F032FA462002F00B
:1048A0002FFA002002F02CFA522002F029FA002000
:1048B00002F026FA642002F023FA002002F020FA27
:1048C0007A2002F01DFA002002F01AFA8B2002F082
:1048D00017FA002002F014FA992002F011FA0020D1
:1048E00002F00EFAA82002F00BFA002002F008FAFB
:1048F000B92002F005FA002002F002FAC42002F00A
:10490000FFF9002002F0FCF9CA2002F0F9F90020BA
:1049100002F0F6F9D22002F0F3F9002002F0F0F9EB
:10492000D92002F0EDF9002002F0EAF9E02002F0CF
:10493000E7F9002002F0E4F9F32002F0E1F90020A9
:1049400002F0DEF9E12002F0EDF9162002F0D8F9CC
:10495000002002F0D5F91C2002F0D2F9002002F06C
:10496000CFF9222002F0CCF9002002F0C9F936205C
:1049700002F0C6F9002002F0C3F9452002F0C0F9A8
:10498000002002F0BDF9522002F0BAF9002002F036
:10499000B7F9642002F0B4F9002002F0B1F97A20EE
:1049A00002F0AEF9002002F0ABF98B2002F0A8F97A
:1049B000002002F0A5F9992002F0A2F9002002F0EF
:1049C0009FF9A82002F09CF9002002F099F9B92083
:1049D00002F096F9002002F093F9C42002F090F959
:1049E000002002F08DF9CA2002F08AF9002002F0BE
:1049F00087F9D22002F084F9002002F081F9D82052
:104A000002F07EF9002002F07BF9E02002F078F954
:104A1000002002F075F9F32002F072F9002002F094
:104A20006FF9E22002F07EF9052002F069F900201A
:104A300002F066F90B2002F063F9002002F060F941
:104A40001B2002F05DF9002002F05AF9342002F038
:104A500057F9002002F054F9442002F051F90020E7
:104A600002F04EF94F2002F04BF9002002F048F915
:104A7000612002F045F9002002F042F9792002F0AD
:104A80003FF9002002F03CF9882002F039F90020BB
:104A900002F036F9972002F033F9002002F030F9E5
:104AA000A62002F02DF9002002F02AF9B72002F02A
:104AB00027F9002002F024F9C22002F021F9002099
:104AC00002F01EF9C72002F01BF9002002F018F9CD
:104AD000D12002F015F9002002F012F9D62002F0E0
:104AE0000FF9002002F00CF9DD2002F009F9002096
:104AF00002F006F9F32002F003F9002002F000F9B9
:104B0000E32002F00FF9052002F0FAF8002002F08D
:104B1000F7F80A2002F0F4F8002002F0F1F81C2067
:104B200002F0EEF8002002F0EBF8332002F0E8F893
:104B3000002002F0E5F8442002F0E2F8002002F044
:104B4000DFF8502002F0DCF8002002F0D9F86220F3
:104B500002F0D6F8002002F0D3F8782002F0D0F866
:104B6000002002F0CDF8882002F0CAF8002002F000
:104B7000C7F8972002F0C4F8002002F0C1F8A62080
:104B800002F0BEF8002002F0BBF8B72002F0B8F83F
:104B9000002002F0B5F8C22002F0B2F8002002F0C6
:104BA000AFF8C72002F0ACF8002002F0A9F8D1203D
:104BB00002F0A6F8002002F0A3F8D52002F0A0F839
:104BC000002002F09DF8DD2002F09AF8002002F0AB
:104BD00097F8F32002F094F8002002F091F8E42016
:104BE00002F0A0F8012002F08BF8002002F088F813
:104BF000012002F085F8002002F082F8022002F085
:104C00007FF8002002F07CF82A2002F079F80020DA
:104C100002F076F83C2002F073F8002002F070F801
:104C20004B2002F06DF8002002F06AF85D2002F0DF
:104C300067F8002002F064F8742002F061F80020A8
:104C400002F05EF8842002F05BF8002002F058F8D1
:104C5000932002F055F8002002F052F8A22002F052
:104C60004FF8002002F04CF8B32002F049F8002081
:104C700002F046F8BE2002F043F8002002F040F8AF
:104C8000C42002F03DF8002002F03AF8CD2002F0F6
:104C900037F8002002F034F8D32002F031F8002079
:104CA00002F02EF8DD2002F02BF8002002F028F8A8
:104CB000F32002F025F8002002F022F8E52002F0AF
:104CC00031F8002002F01CF8002002F019F8002052
:104CD00002F016F8002002F013F8022002F010F89B
:104CE000002002F00DF8292002F00AF8002002F05E
:104CF00007F83C2002F004F8002002F001F84B20F5
:104D000001F0FEFF002001F0FBFF5D2001F0F8FF45
:104D1000002001F0F5FF742001F0F2FF002001F007
:104D2000EFFF842001F0ECFF002001F0E9FF932069
:104D300001F0E6FF002001F0E3FFA22001F0E0FF18
:104D4000002001F0DDFFB32001F0DAFF002001F0C8
:104D5000D7FFBE2001F0D4FF002001F0D1FFC42016
:104D600001F0CEFF002001F0CBFFCD2001F0C8FF05
:104D7000002001F0C5FFD32001F0C2FF002001F0A8
:104D8000BFFFDC2001F0BCFF002001F0B9FFF320E1
:104D900001F0B6FF002001F0B3FFE62001F0C2FFF2
:104DA000112001F0ADFF002001F0AAFF342001F036
:104DB000A7FF002001F0A4FF562001F0A1FF002072
:104DC00001F09EFF762001F09BFF002001F098FF8C
:104DD000772001F095FF002001F092FF662001F09E
:104DE0008FFF002001F08CFF882001F089FF002058
:104DF00001F086FF992001F083FF002001F080FF81
:104E0000BB2001F07DFF002001F07AFF992001F026
:104E100077FF002001F074FF662001F071FF002091
:104E200001F06EFF552001F06BFF002001F068FFDC
:104E3000552001F065FF002001F062FF452001F0E0
:104E40005FFF002001F05CFF432001F059FF0020CC
:104E500001F056FF442001F053FF002001F050FF05
:104E6000E72001F05FFF322001F04AFF002001F04F
:104E700047FF552001F044FF002001F041FF76205C
:104E800001F03EFF002001F03BFF662001F038FFFB
:104E9000002001F035FF672001F032FF002001F013
:104EA0002FFF672001F02CFF002001F029FF872051
:104EB00001F026FF002001F023FF992001F020FFE0
:104EC000002001F01DFFBB2001F01AFF002001F0BF
:104ED00017FF992001F014FF002001F011FF772047
:104EE00001F00EFF002001F00BFF442001F008FF4D
:104EF000002001F005FF562001F002FF002001F024
:104F0000FFFE232001F0FCFE002001F0F9FE33201B
:104F100001F0F6FE002001F0F3FE452001F0F0FE66
:104F2000002001F0EDFEE82001F0FCFE002001F081
:104F3000E7FE002001F0E4FE992001F0E1FE0020F0
:104F400001F0DEFE872001F0DBFE002001F0D8FE3C
:104F5000882001F0D5FE002001F0D2FE772001F07C
:104F6000CFFE002001F0CCFE662001F0C9FE00203B
:104F700001F0C6FE882001F0C3FE002001F0C0FE53
:104F8000AA2001F0BDFE002001F0BAFEBB2001F016
:104F9000B7FE002001F0B4FE992001F0B1FE002020
:104FA00001F0AEFE662001F0ABFE002001F0A8FE8D
:104FB000552001F0A5FE002001F0A2FE552001F0D1
:104FC0009FFE002001F09CFE442001F099FE00208D
:104FD00001F096FE442001F093FE002001F090FEC7
:104FE000552001F08DFE002001F08AFEE92001F03D
:104FF00099FEAA2001F084FE002001F081FE00202D
:1050000001F07EFE002001F07BFE002001F08AFE10
:10501000AA2001F075FECF2001F084FE002001F0EF
:105020006FFE002001F06CFE002001F069FE002000
:1050300001F066FE002001F063FE002001F060FE3A
:10504000002001F05DFE002001F05AFE002001F07A
:1050500057FE002001F054FE002001F051FE002018
:1050600001F04EFE002001F04BFE002001F048FE52
:10507000002001F045FE002001F042FE002001F07A
:105080003FFEF02001F04EFE002001F039FE5020DE
:1050900001F036FE002001F033FE002001F030FE6A
:1050A000002001F02DFEF32001F03CFE002001F075
:1050B00027FEF92001F036FE062001F021FE102027
:1050C00001F01EFE292001F01BFE002001F018FE59
:1050D0003A2001F027FE552001F012FE112001F0C8
:1050E00021FE642002F0AAF9292001F01BFE3520E0
:1050F00001F018FE002001F003FE512001F012FE25
:10510000FF2001F0FDFD532001F00CFE2C2001F0EA
:10511000F7FD552001F006FE822001F0F1FD2C2064
:1051200001F000FE01F001BAFE48808845F21051FE
:1051300088427DD155214FF4704001F00DFEAA2127
:105140004FF2010001F008FE52214FF2020001F07F
:1051500003FE08214FF2030001F0FEFD01214FF292
:10516000040001F0F9FD0D214FF4304001F0F4FD91
:105170000D214BF2010001F0EFFD0D214BF2020079
:1051800001F0EAFD34214FF4364001F0E5FD342111
:105190004BF2016001F0E0FD34214BF2026001F0BE
:1051A000DBFD0D214FF4314001F0D6FD0D214BF216
:1051B000011001F0D1FD0D214BF2021001F0CCFDE8
:1051C00034214FF4374001F0C7FD34214BF2017018
:1051D00001F0C2FD34214BF2027001F0BDFD00214F
:1051E0004FF4324001F0B8FD00214BF2012001F0F4
:1051F000B3FD00214BF2022001F0AEFD24214FF45B
:10520000384001F0A9FD24214BF6010001F0A4FD76
:1052100024214BF6020001F09FFD01214FF43F4095
:1052200001F09AFD0F214FF4334001F095FD00E0AD
:10523000FDE30F214BF2013001F08EFD0F214BF207
:10524000023001F089FD34214FF4394001F084FD32
:1052500034214BF6011001F07FFD34214BF6021092
:1052600001F07AFD08214FF4354001F075FD082169
:105270004BF2015001F070FD08214BF2025001F099
:105280006BFD03214FF4424001F066FD24214FF4F1
:105290003A4001F061FD24214BF6012001F05CFD54
:1052A00024214BF6022001F057FD00214FF43C4031
:1052B00001F052FD78214BF6014001F04DFD002137
:1052C0004BF6024001F048FD00214FF43D4001F053
:1052D00043FD78214BF6015001F03EFD00214BF6D5
:1052E000025001F039FD00214FF43E4001F034FD41
:1052F00064214BF6016001F02FFD00214FF4514075
:1053000001F02AFD33214DF2011001F025FD0021AD
:105310004DF2021001F020FD34214DF2031001F096
:105320001BFD00214DF2041001F016FD3A214DF253
:10533000051001F011FD00214DF2061001F00CFDE9
:105340004A214DF2071001F007FD00214DF208102F
:1053500001F002FD5C214DF2091001F0FDFC00217D
:105360004DF20A1001F0F8FC81214DF20B1001F012
:10537000F3FC00214DF20C1001F0EEFCA6214DF2E1
:105380000D1001F0E9FC00214DF20E1001F0E4FCDB
:10539000E5214DF20F1001F0DFFC01214DF210105C
:1053A00001F0DAFC13214DF2111001F0D5FC0121BE
:1053B0004DF2121001F0D0FC54214DF2131001F007
:1053C000CBFC01214DF2141001F0C6FC82214DF2FC
:1053D000151001F0C1FC01214DF2161001F0BCFCCA
:1053E000CA214DF2171001F0B7FC02214DF218103E
:1053F00001F0B2FC00214DF2191001F0ADFC0221C8
:105400004DF21A1001F0A8FC01214DF21B1001F021
:10541000A3FC02214DF21C1001F09EFC34214DF240
:105420001D1001F099FC02214DF21E1001F094FCB8
:1054300067214DF21F1001F08FFC02214DF2201068
:1054400001F08AFC84214DF2211001F085FC02213B
:105450004DF2221001F080FCA4214DF2231001F046
:105460007BFC02214DF2241001F076FCB7214DF2B5
:10547000251001F071FC02214DF2261001F06CFCA8
:10548000CF214DF2271001F067FC02214DF22810C8
:1054900001F062FCDE214DF2291001F05DFC0221D9
:1054A0004DF22A1001F058FCF2214DF22B1001F0C0
:1054B00053FC02214DF22C1001F04EFCFE214DF266
:1054C0002D1001F049FC03214DF22E1001F044FC97
:1054D00010214DF22F1001F03FFC03214DF230104E
:1054E00001F03AFC33214DF2311001F035FC03217B
:1054F0004DF2321001F030FC6D214DF2331001F00D
:105500002BFC00214FF4524001F026FC33214DF2D8
:10551000012001F021FC00214DF2022001F01CFCD1
:10552000342101E0683200204DF2032001F014FC28
:1055300000214DF2042001F00FFC3A214DF205202C
:1055400001F00AFC00214DF2062001F005FC4A2181
:105550004DF2072001F000FC00214DF2082001F07F
:10556000FBFB5C214DF2092001F0F6FB00214DF21E
:105570000A2001F0F1FB81214DF20B2001F0ECFB40
:1055800000214DF20C2001F0E7FBA6214DF20D2089
:1055900001F0E2FB00214DF20E2001F0DDFBE521E0
:1055A0004DF20F2001F0D8FB01214DF2102001F047
:1055B000D3FB13214DF2112001F0CEFB01214DF25E
:1055C000122001F0C9FB54214DF2132001F0C4FB5D
:1055D00001214DF2142001F0BFFB82214DF2152074
:1055E00001F0BAFB01214DF2162001F0B5FBCA21F2
:1055F0004DF2172001F0B0FB02214DF2182001F00E
:10560000ABFB00214DF2192001F0A6FB02214DF267
:105610001A2001F0A1FB01214DF21B2001F09CFB9F
:1056200002214DF21C2001F097FB34214DF21D2088
:1056300001F092FB02214DF21E2001F08DFB67214B
:105640004DF21F2001F088FB02214DF2202001F0D5
:1056500083FB84214DF2212001F07EFB02214DF2DB
:10566000222001F079FBA4214DF2232001F074FBEC
:1056700002214DF2242001F06FFBB7214DF22520CD
:1056800001F06AFB02214DF2262001F065FBCF21DB
:105690004DF2272001F060FB02214DF2282001F09D
:1056A0005BFBDE214DF2292001F056FB02214DF279
:1056B0002A2001F051FBF2214DF22B2001F04CFB8E
:1056C00002214DF22C2001F047FBFE214DF22D204E
:1056D00001F042FB03214DF22E2001F03DFB102191
:1056E0004DF22F2001F038FB03214DF2302001F064
:1056F00033FB33214DF2312001F02EFB03214DF21B
:10570000322001F029FB6D214DF2332001F024FB02
:1057100000214FF4534001F01FFB33214DF20130C3
:1057200001F01AFB00214DF2023001F015FB34218B
:105730004DF2033001F010FB00214DF2043001F076
:105740000BFB3A214DF2053001F006FB00214DF232
:10575000063001F001FB4A214DF2073001F0FCFA5E
:1057600000214DF2083001F0F7FA5C214DF20930CA
:1057700001F0F2FA00214DF20A3001F0EDFA812138
:105780004DF20B3001F0E8FA00214DF20C3001F03F
:10579000E3FAA6214DF20D3001F0DEFA00214DF2C0
:1057A0000E3001F0D9FAE5214DF20F3001F0D4FAB4
:1057B00001214DF2103001F0CFFA13214DF21130DA
:1057C00001F0CAFA01214DF2123001F0C5FA54215C
:1057D0004DF2133001F0C0FA01214DF2143001F006
:1057E000BBFA82214DF2153001F0B6FA01214DF2DB
:1057F000163001F0B1FACA214DF2173001F0ACFABF
:1058000002214DF2183001F0A7FA00214DF21930B3
:1058100001F0A2FA02214DF21A3001F09DFA0121A5
:105820004DF21B3001F098FA02214DF21C3001F0CC
:1058300093FA34214DF21D3001F08EFA02214DF21F
:105840001E3001F089FA67214DF21F3001F084FA11
:1058500002214DF2203001F07FFA84214DF22130F7
:1058600001F07AFA02214DF2223001F075FAA421FA
:105870004DF2233001F070FA02214DF2243001F094
:105880006BFAB7214DF2253001F066FA02214DF294
:10589000263001F061FACF214DF2273001F05CFA99
:1058A00002214DF2283001F057FADE214DF2293065
:1058B00001F052FA02214DF22A3001F04DFAF221A4
:1058C0004DF22B3001F048FA02214DF22C3001F05C
:1058D00043FAFE214DF22D3001F03EFA03214DF244
:1058E0002E3001F039FA10214DF22F3001F034FA48
:1058F00003214DF2303001F02FFA33214DF23130D7
:1059000001F02AFA03214DF2323001F025FA6D211F
:105910004DF2333001F020FA00214FF4544001F0F1
:105920001BFA33214DF2014001F016FA00214DF22D
:10593000024001F011FA34214DF2034001F00CFA5B
:1059400000214DF2044001F007FA3A214DF20540E2
:1059500001F002FA00214DF2064001F0FDF94A2162
:105960004DF2074001F0F8F900214DF2084001F036
:10597000F3F95C214DF2094001F0EEF900214DF2FE
:105980000A4001F0E9F981214DF20B4001F0E4F900
:1059900000214DF20C4001F0DFF9A6214DF20D403F
:1059A00001F0DAF900214DF20E4001F0D5F9E521C0
:1059B0004DF20F4001F0D0F901214DF2104001F0FD
:1059C000CBF913214DF2114001F0C6F901214DF23E
:1059D000124001F0C1F954214DF2134001F0BCF91D
:1059E00001214DF2144001F0B7F982214DF215402A
:1059F00001F0B2F901214DF2164001F0ADF9CA21D2
:105A00004DF2174001F0A8F902214DF2184001F0C3
:105A1000A3F900214DF2194001F09EF902214DF247
:105A20001A4001F099F901214DF21B4000E005E315
:105A300001F092F902214DF21C4001F08DF9342160
:105A40004DF21D4001F088F902214DF21E4001F097
:105A500083F967214DF21F4001F07EF902214DF2DA
:105A6000204001F079F984214DF2214001F074F9D0
:105A700002214DF2224001F06FF9A4214DF22340A2
:105A800001F06AF902214DF2244001F065F9B721D5
:105A90004DF2254001F060F902214DF2264001F05F
:105AA0005BF9CF214DF2274001F056F902214DF26A
:105AB000284001F051F9DE214DF2294001F04CF966
:105AC00002214DF22A4001F047F9F2214DF22B401C
:105AD00001F042F902214DF22C4001F03DF9FE2186
